:100000000C9463000C948B000C948B000C948B006C
:100010000C948B000C948B000C948B000C948B0034
:100020000C948B000C948B000C948B000C948B0024
:100030000C948B000C94C7040C948B000C948B00D4
:100040000C947D040C948B000C9430020C940A02E6
:100050000C948B000C948B000C948B000C948B00F4
:100060000C948B000C948B000000000024002700EF
:100070002A000000000023002600290000000008DC
:10008000000201000003040700000000000000005F
:10009000010204081020408001020408102001021F
:1000A0000408102000000000250028002B00040494
:1000B0000404040404040202020202020303030310
:1000C0000303AE0A9E0A11241FBECFEFD8E0DEBFA5
:1000D000CDBF11E0A0E0B1E0E2E7F9E102C0059098
:1000E0000D92A033B107D9F722E0A0E3B1E001C03F
:1000F0001D92AC30B207E1F710E0C2E6D0E004C0D8
:100100002197FE010E94740BC136D107C9F70E94E6
:100110001D070C94AC0C0C940000CF92DF92EF9270
:10012000FF920F931F93CF93DF936C017A018B01A2
:10013000C0E0D0E0CE15DF0589F0D8016D918D01CA
:10014000D601ED91FC910190F081E02DC601099559
:10015000892B11F47E0102C02196ECCFC701DF91FB
:10016000CF911F910F91FF90EF90DF90CF90089566
:10017000FC01918D828D981761F0828DDF01A80FAF
:10018000B11D5D968C91928D9F5F9F73928F90E0D1
:1001900008958FEF9FEF0895FC01918D828D981740
:1001A00031F0828DE80FF11D858D90E008958FEF7D
:1001B0009FEF0895FC01918D228D892F90E0805C46
:1001C0009F4F821B91098F739927089586E591E0CF
:1001D0000E94DA0021E0892B09F420E0822F0895A3
:1001E000FC01848DDF01A80FB11DA35ABF4F2C91D4
:1001F000848D90E001968F739927848FA689B789A3
:100200002C93A089B1898C9180648C93938D848D7B
:10021000981306C00288F389E02D80818F7D80834A
:100220000895EF92FF920F931F93CF93DF93EC010A
:1002300081E0888F9B8D8C8D981305C0E889F989A2
:10024000808185FD24C0F62E0B8D10E00F5F1F4FBF
:100250000F731127E02E8C8DE8120CC00FB607FC2F
:10026000FACFE889F989808185FFF5CFCE010E9418
:10027000F000F1CF8B8DFE01E80FF11DE35AFF4F27
:10028000F0820B8FEA89FB898081806207C0EE894A
:10029000FF896083E889F98980818064808381E0B7
:1002A00090E0DF91CF911F910F91FF90EF90089513
:1002B000CF93DF93EC01888D8823C9F0EA89FB890D
:1002C000808185FD05C0A889B9898C9186FD0FC004
:1002D0000FB607FCF5CF808185FFF2CFA889B989D9
:1002E0008C9185FFEDCFCE010E94F000E7CFDF912A
:1002F000CF91089580E090E0892B29F00E94E600DC
:1003000081110C9400000895FC01F894248135813A
:100310008085823021F4C9018170992705C084301D
:1003200031F4C901837099279583848302C01582B3
:10033000148278948085843029F4359527953595F5
:10034000279504C0823011F435952795868588233A
:1003500029F081859285892F992702C080E090E05D
:1003600037FF03C0809590950895232B11F00196D7
:10037000089580E090E008950F931F938095853550
:1003800060F4682F660F860F282F209590E0A0E07C
:10039000B0E0BC01CD01822B21C08A3A80F48555A2
:1003A000982F990F980F692F6095462F50E060E0C5
:1003B00070E08A019B01192BC901B8010FC08A5A4C
:1003C000682F660F860F282F209590E0A0E0B0E000
:1003D000DC0199278827BC01CD01722B1F910F9159
:1003E0000895CF93DF93C0E0D0E08091F501909124
:1003F000F601C817D90740F440E050E0BA01CE0139
:100400000E94B2062196F1CFDF91CF910C94160590
:100410000E94A70C1F920F920FB60F9211242F93D8
:100420003F934F935F936F937F938F939F93AF937C
:10043000BF93EF93FF9386E591E00E94F000FF9158
:10044000EF91BF91AF919F918F917F916F915F914C
:100450004F913F912F910F900FBE0F901F901895C5
:100460001F920F920FB60F9211242F938F939F9389
:10047000EF93FF93E0916601F09167018081E09135
:100480006C01F0916D0182FD12C0908180916F012D
:100490008F5F8F7320917001821751F0E0916F018F
:1004A000F0E0EA5AFE4F958F80936F0101C0808182
:1004B000FF91EF919F918F912F910F900FBE0F9011
:1004C0001F901895833081F028F4813099F08230A4
:1004D000A1F008958730A9F08830B9F08430D1F4C4
:1004E000809180008F7D03C0809180008F77809302
:1004F0008000089584B58F7702C084B58F7D84BD58
:1005000008958091B0008F7703C08091B0008F7DF7
:100510008093B0000895CF93DF93282F30E0F90146
:10052000E458FF4F8491F901E057FF4FD491F9014E
:10053000E255FF4FC491CC2391F081110E946202D9
:10054000EC2FF0E0EE0FFF1FEE58FF4FA591B49196
:10055000EC91ED2381E090E021F480E002C080E0A6
:1005600090E0DF91CF910895CF92DF92EF92FF92CA
:100570000F931F93CF93DF93EC018FB7F894C09044
:100580004201D0904301E0904401F09045018FBFBB
:100590008E85882359F089859A8502979A8789875D
:1005A00089859A8597FF02C01A86198688810E94DC
:1005B0008B022B8130E08217930711F413E001C006
:1005C00010E089810E948B022B8130E08217930713
:1005D00011F481E018278E819F81811B80FF12C05A
:1005E000212F110F330B3F832E832C813D8182708D
:1005F000082E000C990B0197820F931F9D838C830B
:1006000081E001C080E09E85992361F0882351F04C
:1006100089859A85883E9B4028F489859A854996E4
:100620009A8789878A81882309F470C040913301B1
:100630005091340160913501709136019701860126
:10064000041B150B260B370B0A301105210531054C
:1006500008F45CC0C0923301D0923401E0923501BD
:10066000F09236010E948B022B8130E082179307B3
:1006700081F4809131019091320101969093320181
:10068000809331018937910520F083E090E09C87C9
:100690008B878A810E948B023B8121E0232730E0F7
:1006A0008217930731F58091310190913201892BA6
:1006B000E1F08B859C85039719F484E090E008C0F5
:1006C00080913001823048F08C3378F486E090E0FD
:1006D0009C878B871092300108C08D85811102C0E4
:1006E00081E001C08CE380933001109232011092BE
:1006F000310180913001882349F08250809330018C
:10070000811104C085E090E09C878B87DF91CF91B9
:100710001F910F91FF90EF90DF90CF9008958091FF
:100720004E0190914F010E94B4028091540190912A
:1007300055010C94B402CF93DF9390E0FC01E05795
:10074000FF4F2491FC01E255FF4F8491882361F112
:1007500090E0880F991FFC01E859FF4FC591D49193
:10076000FC01EC55FF4FA591B491611109C09FB7F1
:10077000F8948881209582238883EC912E230BC0E6
:10078000623061F49FB7F8943881822F809583237B
:100790008883EC912E2B2C939FBF06C08FB7F894C3
:1007A000E8812E2B28838FBFDF91CF910895EF92A0
:1007B0000F931F93CF93DF93EC01862F68834983B8
:1007C0002A83EB821D821C821F821E8208871A8662
:1007D00019861C861B8691E09D879E87EE2011F06E
:1007E00010E001C012E0612F0E949B03612F8981FC
:1007F0000E949B03612F8A810E949B0388810E9433
:100800008B022B8130E08217930721F483E090E084
:100810009F838E8389810E948B022B8130E0821717
:10082000930731F48E819F8121E082279F838E83FD
:10083000DF91CF911F910F91EF9008953FB7F894FA
:100840008091380190913901A0913A01B0913B011A
:1008500026B5A89B05C02F3F19F00196A11DB11D1B
:100860003FBFBA2FA92F982F8827820F911DA11D56
:10087000B11DBC01CD0143E0660F771F881F991F92
:100880004A95D1F708958F929F92AF92BF92CF92DF
:10089000DF92EF92FF926B017C010E941E044B01DC
:1008A0005C01C114D104E104F104F1F00E941E04C2
:1008B000DC01CB0188199909AA09BB09883E93403C
:1008C000A105B10570F321E0C21AD108E108F108D1
:1008D00088EE880E83E0981EA11CB11CC114D104BF
:1008E000E104F10419F7DDCFFF90EF90DF90CF9096
:1008F000BF90AF909F908F9008951F920F920FB668
:100900000F9211242F933F938F939F93AF93BF9395
:100910008091420190914301A0914401B091450121
:100920003091370126E0230F2D3720F40296A11DC8
:10093000B11D05C029E8230F0396A11DB11D209309
:1009400037018093420190934301A0934401B093F7
:1009500045018091380190913901A0913A01B091FF
:100960003B010196A11DB11D80933801909339017F
:10097000A0933A01B0933B01BF91AF919F918F91AA
:100980003F912F910F900FBE0F901F9018951F92BF
:100990000F920FB60F9211242F933F934F935F93B3
:1009A0006F937F938F939F93AF93BF93EF93FF9337
:1009B000E0914001F09141010995FF91EF91BF91C4
:1009C000AF919F918F917F916F915F914F913F91E7
:1009D0002F910F900FBE0F901F901895CF93DF931C
:1009E000282F30E0F901E458FF4F8491F901E057D6
:1009F000FF4FD491F901E255FF4FC491CC2399F0F8
:100A000081110E946202EC2FF0E0EE0FFF1FEC5507
:100A1000FF4FA591B4918FB7F8949C91ED2FE0957D
:100A2000E923EC938FBFDF91CF9108950F931F932C
:100A3000CF93DF93CDB7DEB729970FB6F894DEBF1B
:100A40000FBECDBF8091FB019091FC01892B09F471
:100A50007EC10E941E0400910102109102022091A9
:100A6000030230910402DC01CB01801B910BA20B2D
:100A7000B30BC297A105B10560F3F8948091F7011B
:100A80009091F8019A838983A091FB01B091FC01B8
:100A9000FD0131968C9189878091F301A091050227
:100AA000B0910602882309F417C11B82AB32B1054D
:100AB00009F058C09BB180910702982B98879BB191
:100AC000809589238F838F818C83898587FF02C0DE
:100AD00088858C8358856F8149853C812B818981EC
:100AE0009A815BB9262F3BB900C046FD252F6BB913
:100AF00000C05BB9362F2BB900C045FD352F6BB94F
:100B000000C05BB9262F3BB900C044FD252F6BB94F
:100B100000C05BB9362F2BB900C043FD352F6BB930
:100B200000C05BB9262F3BB900C042FD252F6BB931
:100B300000C05BB9362F2BB900C041FD352F6BB912
:100B400000C05BB9262F3BB900C040FD252F6BB913
:100B500001975BB9362F2BB9419147FD352F6BB902
:100B600001F6B6C0A532B10509F058C095B1809123
:100B70000702982B988795B1809589238F838F8161
:100B80008C83898587FF02C088858C8358856F8117
:100B900049853C812B8189819A8155B9262F35B9A8
:100BA00000C046FD252F65B900C055B9362F25B9BF
:100BB00000C045FD352F65B900C055B9262F35B9A0
:100BC00000C044FD252F65B900C055B9362F25B9A1
:100BD00000C043FD352F65B900C055B9262F35B982
:100BE00000C042FD252F65B900C055B9362F25B983
:100BF00000C041FD352F65B900C055B9262F35B964
:100C000000C040FD252F65B9019755B9362F25B98C
:100C1000419147FD352F65B901F65AC0989709F003
:100C20008BC098B180910702982B988798B18095D6
:100C300089238F838F818C83898587FF02C0888574
:100C40008C8358856F8149853C812B8189819A816C
:100C500058B9262F38B900C046FD252F68B900C005
:100C600058B9362F28B900C045FD352F68B900C0E6
:100C700058B9262F38B900C044FD252F68B900C0E7
:100C800058B9362F28B900C043FD352F68B900C0C8
:100C900058B9262F38B900C042FD252F68B900C0C9
:100CA00058B9362F28B900C041FD352F68B900C0AA
:100CB00058B9262F38B900C040FD252F68B90197D3
:100CC00058B9362F28B9419147FD352F68B901F63B
:100CD00049873C832B832EC09C9180910702982BDF
:100CE00098879C91809589238F838F818E8388E05C
:100CF0008D8358856F8149853D812E8189819A81B7
:100D00005C9347FD252F2C93262F3A9531F0441FF5
:100D10006C9300C000C000C0F3CF6C93000038E0BB
:100D20004191019769F7B0930602A09305024987A4
:100D30003D832E839A83898378940E941E04609356
:100D40000102709302028093030290930402299699
:100D50000FB6F894DEBF0FBECDBFDF91CF911F91CC
:100D60000F9108958F929F92AF92BF92CF92DF9290
:100D7000EF92FF922091F5013091F60182179307CF
:100D800008F052C04B01AA24BB24E82DC52ED62E54
:100D9000E72EFF24FC2D342F2091FA01222361F04D
:100DA000829E40011124E92DC29E60011124FD2D77
:100DB000429FD00111243B2FF0900002E090FD01F2
:100DC000A091FB01B091FC01FE1008C0AC01440FE2
:100DD000551F840F951F8A0F9B1F14C0880F991FE2
:100DE000880F991F8A0F9B1F472F55276627772744
:100DF000DC01AF0DB11D222321F0429FA00111247F
:100E0000452F4C932091FD01DC01A20FB11DEC9305
:100E10002091FE01DC01A20FB11DFC932091FF0186
:100E2000FC01E20FF11D3083FF90EF90DF90CF9037
:100E3000BF90AF909F908F900895CF93DF93CDB7E1
:100E4000DEB7A5970FB6F894DEBF0FBECDBF78947E
:100E500084B5826084BD84B5816084BD85B58260BF
:100E600085BD85B5816085BD80916E008160809370
:100E70006E001092810080918100826080938100D9
:100E800080918100816080938100809180008160E9
:100E9000809380008091B10084608093B100809144
:100EA000B00081608093B00080917A00846080936C
:100EB0007A0080917A00826080937A0080917A0033
:100EC0008E7F80937A0080917A00806880937A0088
:100ED0001092C1008091F90187FD07C061E00E9476
:100EE0009B038091F9010E94EE0411E01093F4013C
:100EF0000E9416050E94F101E0916601F0916701E0
:100F000082E08083E0916201F09163011082E091C0
:100F10006401F091650188E0808310926E01E09198
:100F20006A01F0916B0186E08083E0916801F091A5
:100F30006901808180618083E0916801F09169019D
:100F4000808188608083E0916801F09169018081EF
:100F500080688083E0916801F091690180818F7DD4
:100F600080838FE090E00E947A0B6C01E12C04E01A
:100F700024E04EE06FE00E94D703D0924F01C09270
:100F80004E018FE090E00E947A0B6C0125E041E178
:100F900060E10E94D703D0925501C0925401109293
:100FA000800080E18093810010933E018FB7809391
:100FB0003F01F89480EA9FE090933D0180933C01CB
:100FC000909387008093860080913F018FBF80912E
:100FD0008100887F809381009091810080913E0103
:100FE000982B909381002FE833E0309341012093B8
:100FF000400110936F0090918100892B80938100B4
:101000008FEF9FEF90934B0180934A019093510192
:1010100080935001CE0105969DA38CA34E0191E2D1
:10102000890E911C34E6632E4AE0742E5EE0A52EF4
:10103000B12C19821A821B821C82ECA1FDA18FE1C6
:1010400011928A95E9F786E591E00E94DA00892BF2
:1010500009F4D5C18E010F5F1F4F2FB7F89480910F
:10106000420190914301A0914401B09145012FBFED
:1010700080935E0190935F01A0936001B093610142
:10108000E0915601F09157010680F781E02D86E549
:1010900091E0099597FD55C0009709F078C08981C6
:1010A000823509F4CCC034F5833409F478C08C342B
:1010B00009F0A3C18A81082E000C990BC097689E85
:1010C0009001699E300D11248B81082E000C990B24
:1010D000C097789E7001799EF00C1124E20EF31EE9
:1010E0008C81082E000C990BC097E80EF91EC12CBC
:1010F000D12C51C1863509F45FC0823709F07DC11A
:101100008A81082E000C990BC097689E1001699E79
:10111000300C11242B81022E000C330B205331098B
:10112000729EC001739E900D1124280E391E8C8171
:10113000820D8053E12CF12C282E312C412C512C86
:10114000CFC02FB7F8948091420190914301A091B4
:101150004401B09145012FBF40915E0150915F0164
:101160006091600170916101841B950BA60BB70B18
:1011700040915A0150915B0160915C0170915D0159
:1011800084179507A607B70708F47ACF88CFF80128
:1011900081938F01E815F90509F05FCF80CF0A81AF
:1011A000002E000C110B0E94F10140E050E060E8BD
:1011B00070E0C801C1973EC02A81022E000C330B9B
:1011C00020533109729EA001739E500D11248B8112
:1011D000082E000C990BC097840F951FB5010E9433
:1011E000600B8B019695982F882797958795B50169
:1011F0000E94600BD62E0E94F101E12CF12CE0162A
:10120000F1065CF440E050E860E070E0C7010E9445
:10121000B206FFEFEF1AFF0AF2CF4D2D50E060E06B
:1012200070E0762F652F542F4427C80117FF02C0A6
:1012300080E090E00E94B2060E941605E0C08A811C
:10124000082E000C990BC097689E1001699E300C07
:1012500011242B81022E000C330B20533109729E76
:10126000C001739E900D1124280E391E8C81820DB1
:10127000805300E010E0282E312C412C512CE12C21
:10128000F12C8091F5019091F601E816F90668F4C9
:101290008E2D800F0E94BC01AB01BC01C7010E94D2
:1012A000B2068FEFE81AF80AECCF0E941605C201C9
:1012B000B1010E9443040F5F1F4F011591E0190710
:1012C000F1F69DC00E941605C201B1010E944304BF
:1012D000FFEFEF1AFF0AE11481E0F80609F48FC06E
:1012E000C12CD12C00E010E06091F5017091F60165
:1012F0000617170738F7C6010E944C0B862F8E0D74
:101300000E94BC01AB01BC01C8010E94B2060F5F84
:101310001F4FD394E9CF40E050E06FEF70E0C80179
:101320000E94B20640E050E060E470E0C80101971E
:101330000E94B20640E050E060E170E0C801029710
:101340000E94B20640E050E0BA01C80103970E9433
:10135000B2060E9416058091F5019091F601019761
:101360000817190730F464E670E080E090E00E940E
:1013700043040E94F1010F5F1F4F8091F50190918E
:10138000F6010817190738F28C010150110948F4C9
:10139000EFEFCE1ADE0ACE14DF048CF500E010E089
:1013A000ECCF40E050E06FEF70E0C8010E94B20661
:1013B00040E050E060E470E0C80101960E94B2068F
:1013C00040E050E060E170E0C80102960E94B20681
:1013D00040E050E0BA01C80103960E94B2060E94A4
:1013E00016050115110531F064E670E080E090E02B
:1013F0000E9443040E94F101C8CF0E94F101809134
:101400005401909155010E94840120915201309124
:101410005301820F931F90935301809352012091A7
:1014200050013091510182179307A1F02817390715
:1014300014F066E701C066E5909351018093500176
:10144000E0915601F09157010190F081E02D86E581
:1014500091E0099580914E0190914F010E94840185
:1014600020914C0130914D01820F931F90934D01BB
:1014700080934C0120914A0130914B0182179307D0
:10148000A1F02817390714F063E601C063E49093D4
:101490004B0180934A01E0915601F0915701019070
:1014A000F081E02D86E591E00995E0915401F091FD
:1014B000550183859485238534852330310511F0CA
:1014C000148613860097B9F18330910519F19CF4C5
:1014D000029789F545E150E066E171E086E591E02B
:1014E0000E948D0042E050E06CE271E086E591E000
:1014F0000E948D0020C084309105C9F00597D9F471
:101500008091460190914701019690934701809305
:10151000460111C0809148019091490183339105A2
:1015200054F40196909349018093480104C01092AD
:101530004901109248010E947A017BCD8091FB0104
:101540009091FC01009711F00E940F0C8091F9011D
:1015500087FD03C060E00C949B030895109259012D
:101560001092580188EE93E0A0E0B0E080935A0119
:1015700090935B01A0935C01B0935D018AE091E0E0
:10158000909357018093560185EC90E0909363010E
:101590008093620184EC90E09093650180936401F4
:1015A00080EC90E0909367018093660181EC90E07D
:1015B000909369018093680182EC90E090936B01B5
:1015C00080936A0186EC90E090936D0180936C01AA
:1015D00010926F01109270011092710110927201BD
:1015E0001092F4011092FA0110920102109202027C
:1015F000109203021092040281E080930002809313
:10160000FD011092FE0192E09093FF018093F3019F
:1016100085E190E09093F8018093F7010E947A0BA6
:101620009093FC018093FB01009761F025E1FC01A0
:1016300011922A95E9F787E090E09093F601809364
:10164000F50108C01092F8011092F7011092F6010E
:101650001092F50183E08093F9018091F4018823D1
:1016600039F061E083E00E949B0383E00E94EE0476
:10167000E1EBF0E0E491F0E0EE0FFF1FEC55FF4FDF
:10168000859194919093060280930502E3E9F0E03E
:10169000E491E09307020895AA1BBB1B51E107C028
:1016A000AA1FBB1FA617B70710F0A61BB70B881FF2
:1016B000991F5A95A9F780959095BC01CD01089581
:1016C00097FB072E16F4009407D077FD09D00E94EF
:1016D0004C0B07FC05D03EF4909581959F4F0895E3
:1016E000709561957F4F0895EE0FFF1F0590F4915F
:1016F000E02D0994CF93DF938230910510F482E0BE
:1017000090E0E0910A02F0910B0220E030E0C0E0AE
:10171000D0E0309711F14081518148175907C0F04E
:101720004817590761F482819381209719F09B83B0
:101730008A832BC090930B0280930A0226C0211546
:10174000310519F04217530718F49A01BE01DF0161
:10175000EF010280F381E02DDCCF2115310509F185
:10176000281B390B2430310590F412968D919C91F1
:1017700013976115710521F0FB019383828304C0E7
:1017800090930B0280930A02FD01329644C0FD0142
:10179000E20FF31F81939193225031092D933C93D3
:1017A0003AC02091080230910902232B41F4209184
:1017B0000201309103013093090220930802209125
:1017C0000001309101012115310541F42DB73EB7DB
:1017D0004091040150910501241B350BE091080252
:1017E000F0910902E217F307A0F42E1B3F0B281714
:1017F000390778F0AC014E5F5F4F2417350748F08A
:101800004E0F5F1F509309024093080281939193FA
:1018100002C0E0E0F0E0CF01DF91CF9108950F9397
:101820001F93CF93DF93009709F48CC0FC0132978C
:101830001382128200910A0210910B020115110508
:1018400081F420813181820F931F20910802309111
:1018500009022817390779F5F0930902E093080285
:1018600071C0D80140E050E0AE17BF0750F41296A7
:101870002D913C911397AD012115310509F1D90145
:10188000F3CF9D01DA013383228360817181860F5A
:10189000971F8217930769F4EC0128813981260F7D
:1018A000371F2E5F3F4F318320838A819B81938333
:1018B0008283452B29F4F0930B02E0930A0242C085
:1018C0001396FC93EE931297ED01499159919E0165
:1018D000240F351FE217F30771F480819181840F83
:1018E000951F029611969C938E93828193811396F5
:1018F0009C938E931297E0E0F0E0D80112968D91C0
:101900009C911397009719F0F8018C01F6CF8D91F7
:101910009C9198012E5F3F4F820F931F20910802E8
:10192000309109022817390769F4309729F4109289
:101930000B0210920A0202C0138212821093090253
:1019400000930802DF91CF911F910F91089581E0DC
:1019500090E0F8940C94AC0C10E0C2E6D0E004C027
:10196000FE010E94740B2196C336D107C9F7F89483
:02197000FFCFA7
:1019720000000C0280000000000011018D00DA005E
:10198200B800CC005801436C69636B456E636F64A9
:1019920065723A3A50726573736564000D0A00000D
:107800000C94343C0C94513C0C94513C0C94513CE1
:107810000C94513C0C94513C0C94513C0C94513CB4
:107820000C94513C0C94513C0C94513C0C94513CA4
:107830000C94513C0C94513C0C94513C0C94513C94
:107840000C94513C0C94513C0C94513C0C94513C84
:107850000C94513C0C94513C0C94513C0C94513C74
:107860000C94513C0C94513C11241FBECFEFD8E036
:10787000DEBFCDBF11E0A0E0B1E0EAE8FFE702C063
:1078800005900D92A230B107D9F712E0A2E0B1E065
:1078900001C01D92AD30B107E1F70E942D3D0C945F
:1078A000C33F0C94003C982F95959595959595958B
:1078B000905D8F708A307CF0282F295A8091C0000B
:1078C00085FFFCCF9093C6008091C00085FFFCCF60
:1078D0002093C6000895282F205DF0CF982F809127
:1078E000C00085FFFCCF9093C6000895EF92FF92F1
:1078F0000F931F93EE24FF2487018091C00087FD22
:1079000017C00894E11CF11C011D111D81E2E8164D
:1079100081EAF80687E0080780E0180770F3E09135
:107920000401F091050109958091C00087FFE9CF1E
:107930008091C6001F910F91FF90EF9008950E94D3
:10794000763C982F8091C00085FFFCCF9093C600B5
:1079500091362CF490330CF09053892F089597555D
:10796000892F08951F930E949F3C182F0E949F3CCF
:107970001295107F810F1F9108951F93182F882350
:1079800021F00E94763C1150E1F71F9108951F935A
:10799000182F0E94763C803249F0809103018F5F5E
:1079A000809303018530C1F01F9108958091C0003C
:1079B00085FFFCCF84E18093C6008091C00085FFE5
:1079C000FCCF1093C6008091C00085FFFCCF80E102
:1079D0008093C6001F910895E0910401F091050184
:1079E00009951F9108950E94763C803241F0809164
:1079F00003018F5F80930301853081F008958091AA
:107A0000C00085FFFCCF84E18093C6008091C00058
:107A100085FFFCCF80E18093C6000895E0910401CA
:107A2000F09105010995089548EC50E08823A1F0F4
:107A30002D9A28EE33E0FA013197F1F721503040CA
:107A4000D1F72D9828EE33E0FA013197F1F7215064
:107A50003040D1F7815061F708953F924F925F9285
:107A60006F927F928F929F92AF92BF92CF92DF924E
:107A7000EF92FF920F931F93CF93DF93000082E06A
:107A80008093C00080E18093C4001092C50088E11B
:107A90008093C10086E08093C2005098589A259A3E
:107AA00081E00E94143D24E1F22E9EE1E92E85E959
:107AB000D82E0FE0C02E10E1B12EAA24A394B1E479
:107AC0009B2EA6E58A2EF2E57F2EE0E26E2E79E46B
:107AD000572E63E5462E50E5352E0E94763C8033C6
:107AE000B1F18133B9F1803409F46FC0813409F404
:107AF00076C0823409F485C0853409F488C08035A5
:107B000031F1823521F1813511F1853509F485C0D6
:107B1000863509F48DC0843609F496C0843709F49B
:107B200003C1853709F472C1863709F466C08091B4
:107B300003018F5F80930301853079F6E0910401A2
:107B4000F091050109950E94763C803351F60E9420
:107B5000F33CC3CF0E94763C803249F78091C0004D
:107B600085FFFCCFF092C6008091C00085FFFCCF5E
:107B70009092C6008091C00085FFFCCF8092C60025
:107B80008091C00085FFFCCF7092C6008091C0003C
:107B900085FFFCCF6092C6008091C00085FFFCCFBE
:107BA0005092C6008091C00085FFFCCF4092C60075
:107BB0008091C00085FFFCCF3092C6008091C0004C
:107BC00085FFFCCFB092C60088CF0E94763C8638F5
:107BD00008F4BDCF0E94763C0E94F33C7ECF0E9409
:107BE000763C803809F49CC0813809F40BC1823896
:107BF00009F430C1883909F48FC080E00E94C73C85
:107C00006CCF84E10E94BD3C0E94F33C66CF85E0CE
:107C10000E94BD3C0E94F33C60CF0E94763C809362
:107C200006010E94763C809307010E94F33C55CFE9
:107C30000E94763C803309F411C183E00E94BD3C70
:107C400080E00E94C73C49CF0E94763C80930902A5
:107C50000E94763C8093080280910C028E7F809374
:107C60000C020E94763C853409F409C18091080217
:107C700090910902892B89F000E010E00E94763C87
:107C8000F801E85FFE4F80830F5F1F4F809108026D
:107C9000909109020817190788F30E94763C8032F8
:107CA00009F045CF80910C0280FFF5C0609106017C
:107CB00070910701660F771F7093070160930601AB
:107CC000A0910802B09109021097C9F0E8E0F1E034
:107CD0009B01AD014E0F5F1FF999FECF32BD21BD53
:107CE000819180BDFA9AF99A2F5F3F4FE417F5070B
:107CF00099F76A0F7B1F70930701609306018091CB
:107D0000C00085FFFCCFF092C6008091C00085FFC7
:107D1000FCCFB092C600E1CE83E00E94C73CDDCE2E
:107D200082E00E94C73CD9CE0E94763C8093090233
:107D30000E94763C80930802809106019091070191
:107D4000880F991F90930701809306010E94763C4B
:107D5000853409F49AC080910C028E7F80930C02C6
:107D60000E94763C803209F0B8CE8091C00085FF39
:107D7000FCCFF092C600A0910802B09109021097C2
:107D8000C1F180910C02082F0170182F1695117007
:107D9000E0910601F0910701AF014F5F5F4FBA011B
:107DA00020E030E00023B1F4112339F49491809164
:107DB000C00085FFFCCF9093C6002F5F3F4FCB01E3
:107DC0000196FA012A173B0780F4BC014F5F5F4F11
:107DD000002351F3F999FECFF2BDE1BDF89A90B5B9
:107DE0008091C00085FFFCCFE6CF709307016093C0
:107DF00006018091C00085FDE5CE8091C00085FF21
:107E0000F8CFE0CE81E00E94C73C67CE0E94763C6E
:107E1000803209F08CCE8091C00085FFFCCFF092BB
:107E2000C6008091C00085FFFCCFE092C600809123
:107E3000C00085FFFCCFD092C6008091C00085FFB6
:107E4000FCCFC092C6008091C00085FFFCCFB092ED
:107E5000C60043CE80E10E94C73C3FCE0E94763CE4
:107E60000E94763C182F0E94763C112309F483C0AF
:107E7000113009F484C08FE00E94C73C2ECE80915F
:107E80000C02816080930C02F1CE80910C02816023
:107E900080930C0265CF809107018823880F880B9F
:107EA0008A2180930B028091060190910701880F2F
:107EB000991F90930701809306018091080280FF2B
:107EC00009C08091080290910902019690930902DD
:107ED00080930802F894F999FECF1127E0910601EA
:107EE000F0910701C8E0D1E0809108029091090269
:107EF000103091F40091570001700130D9F303E084
:107F000000935700E8950091570001700130D9F3B4
:107F100001E100935700E8950990199000915700EE
:107F200001700130D9F301E000935700E8951395F3
:107F3000103498F011270091570001700130D9F3E7
:107F400005E000935700E89500915700017001305B
:107F5000D9F301E100935700E8953296029709F0B2
:107F6000C7CF103011F00296E5CF11248091C000E8
:107F700085FFC5CEC8CE8EE10E94C73CAECD85E957
:0A7F80000E94C73CAACDF894FFCF81
:027F8A00800075
:040000030000780081
:00000001FF
